:020000040000FA
:0800000000008A150A1296287F
:06000A00831203138B01B9
:10001000FF308316031385008601870188010230B3
:100020004C24652483120313B201B301B401B5015A
:10003000831203133308803E803E031D21280530C0
:10004000320203184928831203133408383EB600DD
:100050000030B70035080318350FB707360884009D
:1000600083133718831700308000840A0030800023
:10007000840A00308000840A0030800084038403F6
:1000800084030430B4070318B50AB20A0319B30A8B
:100090001828E223AC2383120313B200C123831276
:1000A0000313B301E2233F22831203136E0883126A
:1000B00003174502031D6228831203136D08831280
:1000C0000317440203186928013083120313B30095
:1000D00052280030831203133304031952280130CD
:1000E000B400B501831203133508803E7F3E031D23
:1000F0007B2800303402031895283F228312031313
:10010000341D8F283408B3000310B30C0310B30C54
:100110000310B30C0330B305B30A33089F248312D2
:100120000313B40A0319B50A722806210730831293
:10013000031332020318F92800308A00A530320771
:1001400003188A0A831203138200AC28B728C22836
:10015000CD28D828E328EE28831203171008FD00C5
:100160001108FE001208FF001308642503298312FA
:1001700003171408FD001508FE001608FF001708F5
:1001800064250329831203171808FD001908FE00CF
:100190001A08FF001B0864250329831203171C0893
:1001A000FD001D08FE001E08FF001F08642503292E
:1001B000831203172008FD002108FE002208FF001B
:1001C000230864250329831203172408FD0025084A
:1001D000FE002608FF002708642503298312031761
:1001E0002808FD002908FE002A08FF002B086425C6
:1001F0000329831203172C08FD002D08FE002E088A
:10020000FF002F086425EC244928080083120317F7
:100210003808F9003908FA003A08FB003B08FC00EE
:10022000831203173408FD003508FE003608FF006E
:1002300037088A150A1246228A110A1283120317F6
:10024000AF007F08AE007E08AD007D08AC00003036
:100250002F02031D352998302E02031D35299630B3
:100260002D02031D352981302C02031C3D298312E8
:100270000317AC01AD01AE01AF01831203172C08C7
:1002800083120317A800831203172D088312031784
:10029000A900831203172E0883120317AA008312E2
:1002A00003172F0883120317AB0083120317CB0A1F
:1002B00005304B020318CB010430FF004B088A15B0
:1002C0000A129A238A110A1283120313A300383EDA
:1002D000A30000300318013EA2002308840083130A
:1002E000221883170008A100840A0008A000840ACD
:1002F0000008A400840A0008A50084038403840382
:10030000210883120317B002831203132008031C71
:10031000200A03198E2983120317B10283120313D3
:100320002408031C240A0319982983120317B20214
:10033000831203132508031C250A0319A22983121B
:100340000317B302831203172C0883120317B00795
:10035000831203172D0803182D0A0319B2298312DB
:100360000317B107831203172E0803182E0A031967
:10037000BC2983120317B207831203172F0803182F
:100380002F0A0319C62983120317B3078312031315
:1003900023088400831322188317831203172C0861
:1003A0008000840A2D088000840A2E088000840AB8
:1003B0002F0880000530F9000030FA000030FB0003
:1003C0000030FC00831203173008FD003108FE00E6
:1003D0003208FF0033088A150A1246228A110A12CF
:1003E00083120317AF007F08AE007E08AD007D08C2
:1003F000AC002C08F9002D08FA002E08FB002F088D
:10040000FC00E830FD000330FE000030FF0000304B
:100410008A150A122A218A110A1283120317AF00C1
:100420007F08AE007E08AD007D08AC008730F90083
:100430000630FA000030FB000030FC002C08FD0004
:100440002D08FE002E08FF002F088A150A124622EA
:100450008A110A1283120317AF007F08AE007E08CC
:10046000AD007D08AC00DD30AC07FF30031CAD07EC
:10047000FF30031CAE07FF30031CAF070800083035
:100480002524003035240A30FF000030672433244F
:100490007F2401303524FB2383120317C5007F0816
:1004A000C4008D30831203139F007F240430352451
:1004B000FB2383120313EE007F08ED00A5308312A7
:1004C00003139F007F24FB2383120317C1007F08BF
:1004D000C00083120313A301831203174108831280
:1004E00003136E02031D7A2A831203174008831236
:1004F00003136D020318962A831203136D088312E7
:100500000317400283120317C20083120317410826
:1005100083120317C300831203136E08031C6E0AB1
:100520000319952A83120317C302B32A83120317F0
:100530004008831203136D0283120317C200831253
:1005400003136E0883120317C300831203174108B5
:10055000031C410A0319AF2A83120317C302013097
:1005600083120313A3008312031745088312031396
:100570006E02031DC12A831203174408831203135A
:100580006D020318DD2A831203136D08831203170B
:10059000440283120317C60083120317450883120F
:1005A0000317C700831203136E08031C6E0A031996
:1005B000DC2A83120317C702FA2A8312031744089E
:1005C000831203136D0283120317C60083120313F1
:1005D0006E0883120317C700831203174508031C14
:1005E000450A0319F62A83120317C7020130831242
:1005F0000313A30683120317420883120317900004
:100600008312031743088312031791009201930189
:1006100083120317460883120317940083120317EB
:100620004708831203179500960197011408F900F3
:100630001508FA001608FB001708FC0083120317C0
:100640001008FD001108FE001208FF0013088A15AB
:100650000A122A218A110A12831203179F007F08A7
:100660009E007E089D007D089C00831203174608AB
:10067000FD004708FE00831203174208FF004308ED
:100680008A150A125C238A110A1283120313A2002C
:100690007F0883120317A400831203132208831216
:1006A0000317A500A601A70183120313230803194A
:1006B0007E2B831203171C0883120317B4028312C4
:1006C00003171D08031C1D0A0319692B8312031746
:1006D000B502831203171E08031C1E0A0319732B8D
:1006E00083120317B602831203171F08031C1F0A85
:1006F00003197D2B83120317B702A22B8312031752
:100700001C0883120317B407831203171D0803186C
:100710001D0A03198E2B83120317B50783120317C3
:100720001E0803181E0A0319982B83120317B60715
:10073000831203171F0803181F0A0319A22B831221
:100740000317B70783120317B80A0319B90A031965
:10075000BA0A0319BB0A08000030252406303524E4
:100760001430FF000030672433247F2483120313E6
:100770001E0E0F3983120313A3000310A30C2308CA
:10078000080000302524053035241430FF000030E7
:10079000672433247F24FB2383120313A3007F08E1
:1007A000A2000310A31B0314A30CA20C0310A31B91
:1007B0000314A30CA20C0310A31B0314A30CA20C80
:1007C0002208080083120317B801B901BA01BB015E
:1007D00083120317B401B501B601B70183160313E1
:1007E000EC01ED01EE01EF0183160313E801E901CD
:1007F000EA01EB010800831203131E08831203139E
:10080000A000A4010310A00DA40D0310A00DA40DC1
:10081000831603131E0883120313A500A701250ED8
:100820000F39A500270EA700F039A504A70603106D
:10083000A70CA50C0310A70CA50C2508A0042708DD
:10084000A4042008FF002408080083120313A20058
:10085000F030831603131F0583120313220483163B
:1008600003139F0008001F15080083120313A20042
:100870000310A20D0310A20D0310A20D8312031387
:100880001F0883120313A100C730A1052208210409
:10089000831203139F00080083120313A300231C79
:1008A000532C1F17542C1F1383120313A31C5A2CF1
:1008B0009F175B2C9F1383120313231D612C1F179B
:1008C000622C1F1308001F1008001F140800831259
:1008D0000313A2007F08A100A001A4018312031347
:1008E00022082402031D762C2108200203187E2CE6
:1008F00083120313A00A0319A40A6E2C08008312A2
:1009000003131F197F2C0800EC24013083120313FA
:10091000B000B1010030831203133102031D922C89
:100920000530300203189E2C8312031330089F24D5
:1009300083120313B00A0319B10A8A2C0800831228
:100940000313A200A300FF30831203138600831257
:100950000313A101FF30A207031CA10322083C3EA0
:10096000A20021080318210F013EA10022088400E3
:10097000831321188317000883120313880083123E
:1009800003132308DE3EA20000300318013EA1003D
:10099000220884008313211883170008A000AC3EAE
:1009A000A20000300318013EA10022088400831336
:1009B000211883170008A000200983120313860062
:1009C000831203174908831203132306031DEB2C1C
:1009D00083120313861308000030831203174A049E
:1009E0000319F72C0130831203138700FA2C8312AA
:1009F000031387010800043C83120317C900080091
:100A000083120313AB007F08AA000430AC008312EA
:100A100003132A082B040319402D2C08AD00AC0346
:100A20002D08DE3EAD0000300318013EAE000A3056
:100A3000FD000030FE002A08FF002B088A150A126C
:100A4000BC218A110A127F0883120313AF002D08FC
:100A5000840083132E1883172F0880000A30FD00AE
:100A60000030FE002A08FF002B088A150A12002019
:100A70008A110A1283120313AB007F08AA00072D04
:100A8000831203132C08AA00831203132A080319E4
:100A90005D2D831203132A08AB00AA032B08DE3E48
:100AA000AB0000300318013EAC002B088400831318
:100AB0002C18831700308000442D831203132A085A
:100AC00083120317C800080083120313A3007F08D2
:100AD000A2007E08A1007D08A00000302302031DB3
:100AE0007B2D00302202031D7B2D27302102031DA8
:100AF0007B2D103020020318932D8312031320083E
:100B0000A400FF002108A5008A110A1200258A11FD
:100B10000A1203308A110A12FB248A110A12831264
:100B20000317CA012D2F0030831203132302031D64
:100B3000A32D01302202031DA32D86302102031DA7
:100B4000A32DA03020020318D72D0A30F900003061
:100B5000FA000030FB000030FC0083120313200871
:100B6000FD002108FE002208FF0023088A150A1252
:100B700046228A110A1283120313A7007F08A600D7
:100B80007E08A900A5007D08A400A800FF00290890
:100B90008A110A1200258A110A1202308A110A12D9
:100BA000FB248A110A1283120317CA012D2F003069
:100BB000831203132302031DE72D0F302202031DAE
:100BC000E72D42302102031DE72D4030200203189B
:100BD0001B2E6430F9000030FA000030FB000030BA
:100BE000FC00831203132008FD002108FE002208E8
:100BF000FF0023088A150A1246228A110A1283125C
:100C00000313A7007F08A6007E08A5007D08A400A6
:100C1000A800FF002508A9008A110A1200258A11E0
:100C20000A1201308A110A12FB248A110A12831255
:100C30000317CA012D2F0030831203132302031D53
:100C40002B2E98302202031D2B2E96302102031DDD
:100C50002B2E8030200203185F2EE830F90003307D
:100C6000FA000030FB000030FC0083120313200860
:100C7000FD002108FE002208FF0023088A150A1241
:100C800046228A110A1283120313A7007F08A600C6
:100C90007E08A900A5007D08A400A800FF0029087F
:100CA0008A110A1200258A110A1200308A110A12CA
:100CB000FB248A110A1283120317CA012D2F053053
:100CC000831203132302031D6F2EF5302202031D2E
:100CD0006F2EE1302102031D6F2E00302002031819
:100CE000A42E1030F9002730FA000030FB0000304D
:100CF000FC00831203132008FD002108FE002208D7
:100D0000FF0023088A150A1246228A110A1283124A
:100D10000313A7007F08A6007E08A5007D08A40095
:100D2000A800FF002508A9008A110A1200258A11CF
:100D30000A1202308A110A12FB248A110A120130A7
:100D400083120317CA002D2F3B3083120313230293
:100D5000031DB42E9A302202031DB42ECA30210284
:100D6000031DB42E003020020318E92EA030F90034
:100D70008630FA000130FB000030FC0083120313C0
:100D80002008FD002108FE002208FF0023088A1524
:100D90000A1246228A110A1283120313A7007F083F
:100DA000A6007E08A900A5007D08A400A800FF00F9
:100DB00029088A110A1200258A110A1201308A11A3
:100DC0000A12FB248A110A12013083120317CA0087
:100DD0002D2FFF30831203132302031DF92EFF3042
:100DE0002202031DF92EFF302102031DF92EFF30D0
:100DF000200203182D2F4030F9004230FA000F3046
:100E0000FB000030FC00831203132008FD002108C2
:100E1000FE002208FF0023088A150A1246228A11C2
:100E20000A1283120313A3007F08A2007E08A50004
:100E3000A1007D08A000A400FF0025088A110A1265
:100E400000258A110A1200308A110A12FB248A1125
:100E50000A12013083120317CA0008001934003443
:100E6000B7340B34AC3400340A340034FD340B3462
:100E70004834013401340034FE340B344934013435
:100E800001340034FF340B344A340134013400346B
:100E9000FE3407346D34003402340034F5340B343E
:100EA0004034013402340034F7340B34423401341A
:100EB00002340034FA340734E834003404340034A3
:100EC000F9340B344434013402340034FB340B3431
:100ED0004634013402340034C1340B34EC34003471
:100EE00004340034C5340B34103401340434003479
:100EF000C9340B341434013404340034CD340B348D
:100F00001834013404340034D1340B341C3401342B
:100F100004340034D5340B34203401340434003428
:100F2000D9340B342434013404340034DD340B342C
:100F30002834013404340034E1340B342C340134CB
:100F400004340034E5340B343034013404340034D8
:100F500000340C344B34013401340034E9340B34A4
:100F60003434013404340034ED340B343834013477
:100F700004340034F1340B343C3401340434003490
:100F800001340C344C34013401340034003A031978
:100F9000CD2F803A0319D42F00347E0884008313A8
:100FA0007F188317000808007F088A007E088200E7
:100FB0000800003A0319E12F803A0319EB2FFF01D3
:100FC00000347E08840083137F1883170008FF0015
:100FD000840A000808008A110A12D427FD00FE0FB7
:100FE000FF03FF0A8A110A12D427FC007D08FF00C4
:100FF0007C0808000034003400340034013400342C
:1010000083160313C9007F08C8007E08CB007D0843
:10101000CA000314C91F0310031C58280314CB1F54
:101020000310031C35284809CC004909CD00CC0A1F
:101030000319CD0A4A09CE004B09CF00CE0A031985
:10104000CF0A4E08FD004F08FE004C08FF004D0877
:101050008A150A12CA228A150A1283160313CD00B2
:101060007F08CC00FF004D0895288316031348091C
:10107000CC004909CD00CC0A0319CD0A4A08FD006D
:101080004B08FE004C08FF004D088A150A12CA22C0
:101090008A150A1283160313CD007F08CC00CC09F1
:1010A000CD09CC0A0319CD0A4C08FF004D0895283C
:1010B000031483160313CB1F0310031C80284A0953
:1010C000CC004B09CD00CC0A0319CD0A4C08FD0019
:1010D0004D08FE004808FF0049088A150A12CA2276
:1010E0008A150A1283160313CD007F08CC00CC09A1
:1010F000CD09CC0A0319CD0A4C08FF004D089528EC
:10110000831603134A08FD004B08FE004808FF0041
:1011100049088A150A12CA228A150A12831603136D
:10112000C9007F08C800FF00490808002E30FE00F3
:101130000730FF0080308A110A12D9278A150A1257
:1011400083160313A1007F08A0003030A2000730EF
:10115000A300831603132008A4002108A500FF3074
:10116000A007031CA1032408250403192629043021
:101170002207A400A501A50D2308A5072408FE0049
:101180002508FF0080308A110A12D9278A150A1211
:1011900083160313A7007F08A6002208FE00230879
:1011A000FF0080308A110A12D9278A150A12831685
:1011B0000313A900A5007F08A800A400023022079D
:1011C000A400A501A50D2308A5072408FE002508F5
:1011D000FF0080308A110A12D9278A150A12831655
:1011E0000313A500AB007F08A400AA008316031315
:1011F0002608AA002708AB00FF30A607031CA70398
:101200002A082B0403191F292808FE002908FF00BB
:1012100080308A110A12C6278A150A128316031310
:10122000AA00240884008313251883172A08800045
:10123000A80A0319A90AA40A0319A50AF628063060
:1012400083160313A2070318A30AA9288A110A12F6
:101250000528080083120313CF007F08CE007E0804
:10126000CD007D08CC007C08D3007B08D2007A0832
:10127000D1007908D000D401D501D601D7010830BA
:10128000D800831203134C1C53295008D40751086B
:101290000318510FD50752080318520FD6075308E9
:1012A0000318530FD707831203134D1C6B295208E1
:1012B000DC005108DB00D9010030D4075008DA0007
:1012C00003185A0FD5075B0803185B0FD6075C0895
:1012D00003185C0FD707831203134E1C8329510890
:1012E000DC005008DB00DA01D9010030D4070030FF
:1012F00003185A0FD5075B0803185B0FD6075C0865
:1013000003185C0FD707831203134F1C9A29500848
:10131000DC00DB01DA01D9010030D407003003180A
:101320005A0FD5075B0803185B0FD6075C08031834
:101330005C0FD707831203134C08D9004D08DA005D
:101340004E08DB004F08DC0003105C0CCF005B0C88
:10135000CE005A0CCD00590CCC000310D00DD10D8D
:10136000D20DD30DD80B41295408FD005508FE00BD
:101370005608FF005708080083160313D1007F08A2
:10138000D0007E08D3007D08D2000314D11F0310C3
:10139000031C0E2A0314D31F0310031CF129500948
:1013A000D4005109D500D40A0319D50A5209D60030
:1013B0005309D700D60A0319D70A5608FD00570863
:1013C000FE005408FF0055088A150A1219238A15D1
:1013D0000A1283160313D5007F08D400FF005508B6
:1013E000452A831603135009D4005109D500D40AA5
:1013F0000319D50A5208FD005308FE005408FF00E7
:1014000055088A150A1219238A150A12831603131E
:10141000D5007F08D400FF005508452A0314831621
:101420000313D31F0310031C302A5209D40053099D
:10143000D500D40A0319D50A5408FD005508FE004A
:101440005008FF0051088A150A1219238A150A123A
:1014500083160313D5007F08D400FF005508452AE2
:10146000831603135208FD005308FE005008FF00C6
:1014700051088A150A1219238A150A1283160313B2
:10148000D1007F08D000FF00510808008312031329
:10149000E0007F08DF007E08DE007D08DD007C08BC
:1014A000E4007B08E3007A08E2007908E100E50146
:1014B000E601E701E8010130E900EA01EB01EC0196
:1014C0006108620463046404031D6E2AFF30FD009A
:1014D000FF30FE00FF30FF00FF30C92A83120313E4
:1014E000E41B7D2A0310E10DE20DE30DE40D031072
:1014F000E90DEA0DEB0DEC0D6E2A8312031369085A
:101500006A046B046C040319C02A64086002031D9A
:10151000932A63085F02031D932A62085E02031D7B
:10152000932A61085D02031CB32A8312031369081E
:10153000E5076A0803186A0FE6076B0803186B0FC4
:10154000E7076C0803186C0FE8076108DD02620802
:10155000031C620FDE026308031C630FDF026408D2
:10156000031C640FE002031083120313E40CE30C6A
:10157000E20CE10C0310EC0CEB0CEA0CE90C7D2AFC
:10158000831203136508FD006608FE006708FF006C
:101590006808080083160313C0007F08BF007E0898
:1015A000C2007D08C100C301C4010130C500C601ED
:1015B00041084204031DE02AFF30FF00FF30182BD2
:1015C0008316031341084208C700C71BEE2A031005
:1015D000C10DC20D0310C50DC60DE02A83160313FD
:1015E000450846040319132B42084002031DFA2A3A
:1015F00041083F02031C0A2B831603134508C30747
:1016000046080318460FC4074108BF024208031CDE
:10161000420FC002031083160313C20CC10C031047
:10162000C60CC50CEE2A831603134308FF004408BA
:10163000080083160313D9007F08D8007E08DB005A
:101640007D08DA005B04031D292BFF30FF00FF300B
:101650005B2B013083160313DC00831603135A0837
:101660005B08DD00DD1B392B0310DA0DDB0DDC0A16
:101670002D2B0030831603135C040319562B5B08D3
:101680005902031D452B5A085802031C4F2B831681
:1016900003135A08D8025B08031C5B0FD90203101E
:1016A00083160313DB0CDA0CDC03392B83160313CC
:1016B0005808FF005908080083160313B7007F0875
:1016C000B6007E08B9007D08B800BA01BB01083039
:1016D000BC0083160313361C732B3808BA0739086D
:1016E0000318390FBB07831603133608BD003708EC
:1016F000BE000030BE1BFF303E1C862BBD010030FB
:10170000BA073808BE0003183E0FBB078316031341
:101710003608BD003708BE0003103E0CB7003D0C74
:10172000B6000310B80DB90DBC0B692B3A08FF00C9
:101730003B08080083160313E3007F08E400E5017B
:101740000830E60083160313631CA82B6408E50722
:10175000831603136308E7000310670CE30003100C
:10176000640DE700E400E60BA22B650808003F3497
:1017700006345B344F3466346D347D3407347F3443
:101780006F34003400340034003401340034003449
:1017900000340234003400340034033400340034A4
:1017A0000034043400340034003405340034003490
:1017B000003406340034003400340734003400347C
:1017C0000034083400340034003400340034003471
:1017D0000034003400340034003400340034003469
:1017E00000340134023408341034023400340C3430
:1017F0000034043400340D34003400340034003438
:04180000003400347C
:02400E00333F3E
:00000001FF
